{
  "_format": "hh-sol-artifact-1",
  "contractName": "CrowdFunding",
  "sourceName": "contracts/funding.sol",
  "abi": [
    {
      "inputs": [
        {
          "internalType": "string",
          "name": "_FundTitle",
          "type": "string"
        },
        {
          "internalType": "uint256",
          "name": "_ReqFundAmount",
          "type": "uint256"
        },
        {
          "internalType": "string",
          "name": "_FundImage",
          "type": "string"
        },
        {
          "internalType": "string",
          "name": "_FundStory",
          "type": "string"
        }
      ],
      "stateMutability": "nonpayable",
      "type": "constructor"
    },
    {
      "anonymous": false,
      "inputs": [
        {
          "indexed": true,
          "internalType": "address",
          "name": "donor",
          "type": "address"
        },
        {
          "indexed": true,
          "internalType": "uint256",
          "name": "amount",
          "type": "uint256"
        },
        {
          "indexed": true,
          "internalType": "uint256",
          "name": "timestamp",
          "type": "uint256"
        }
      ],
      "name": "Donated",
      "type": "event"
    },
    {
      "inputs": [],
      "name": "DonateAmount",
      "outputs": [],
      "stateMutability": "payable",
      "type": "function"
    },
    {
      "inputs": [],
      "name": "FundImage",
      "outputs": [
        {
          "internalType": "string",
          "name": "",
          "type": "string"
        }
      ],
      "stateMutability": "view",
      "type": "function"
    },
    {
      "inputs": [],
      "name": "FundStory",
      "outputs": [
        {
          "internalType": "string",
          "name": "",
          "type": "string"
        }
      ],
      "stateMutability": "view",
      "type": "function"
    },
    {
      "inputs": [],
      "name": "FundTitle",
      "outputs": [
        {
          "internalType": "string",
          "name": "",
          "type": "string"
        }
      ],
      "stateMutability": "view",
      "type": "function"
    },
    {
      "inputs": [],
      "name": "OwnerAddress",
      "outputs": [
        {
          "internalType": "address payable",
          "name": "",
          "type": "address"
        }
      ],
      "stateMutability": "view",
      "type": "function"
    },
    {
      "inputs": [],
      "name": "ReqFundAmount",
      "outputs": [
        {
          "internalType": "uint256",
          "name": "",
          "type": "uint256"
        }
      ],
      "stateMutability": "view",
      "type": "function"
    },
    {
      "inputs": [],
      "name": "TotalRecivedAmount",
      "outputs": [
        {
          "internalType": "uint256",
          "name": "",
          "type": "uint256"
        }
      ],
      "stateMutability": "view",
      "type": "function"
    }
  ],
  "bytecode": "0x60806040526040518060400160405280600d81526020017f43616d706169676e205465737400000000000000000000000000000000000000815250600090816100489190610348565b5034801561005557600080fd5b50604051610d69380380610d698339818101604052810190610077919061058c565b83600090816100869190610348565b5082600181905550816002908161009d9190610348565b5080600390816100ad9190610348565b5033600460006101000a81548173ffffffffffffffffffffffffffffffffffffffff021916908373ffffffffffffffffffffffffffffffffffffffff16021790555050505050610647565b600081519050919050565b7f4e487b7100000000000000000000000000000000000000000000000000000000600052604160045260246000fd5b7f4e487b7100000000000000000000000000000000000000000000000000000000600052602260045260246000fd5b6000600282049050600182168061017957607f821691505b60208210810361018c5761018b610132565b5b50919050565b60008190508160005260206000209050919050565b60006020601f8301049050919050565b600082821b905092915050565b6000600883026101f47fffffffffffffffffffffffffffffffffffffffffffffffffffffffffffffffff826101b7565b6101fe86836101b7565b95508019841693508086168417925050509392505050565b6000819050919050565b6000819050919050565b600061024561024061023b84610216565b610220565b610216565b9050919050565b6000819050919050565b61025f8361022a565b61027361026b8261024c565b8484546101c4565b825550505050565b600090565b61028861027b565b610293818484610256565b505050565b5b818110156102b7576102ac600082610280565b600181019050610299565b5050565b601f8211156102fc576102cd81610192565b6102d6846101a7565b810160208510156102e5578190505b6102f96102f1856101a7565b830182610298565b50505b505050565b600082821c905092915050565b600061031f60001984600802610301565b1980831691505092915050565b6000610338838361030e565b9150826002028217905092915050565b610351826100f8565b67ffffffffffffffff81111561036a57610369610103565b5b6103748254610161565b61037f8282856102bb565b600060209050601f8311600181146103b257600084156103a0578287015190505b6103aa858261032c565b865550610412565b601f1984166103c086610192565b60005b828110156103e8578489015182556001820191506020850194506020810190506103c3565b868310156104055784890151610401601f89168261030e565b8355505b6001600288020188555050505b505050505050565b6000604051905090565b600080fd5b600080fd5b600080fd5b600080fd5b6000601f19601f8301169050919050565b61045282610438565b810181811067ffffffffffffffff8211171561047157610470610103565b5b80604052505050565b600061048461041a565b90506104908282610449565b919050565b600067ffffffffffffffff8211156104b0576104af610103565b5b6104b982610438565b9050602081019050919050565b60005b838110156104e45780820151818401526020810190506104c9565b60008484015250505050565b60006105036104fe84610495565b61047a565b90508281526020810184848401111561051f5761051e610433565b5b61052a8482856104c6565b509392505050565b600082601f8301126105475761054661042e565b5b81516105578482602086016104f0565b91505092915050565b61056981610216565b811461057457600080fd5b50565b60008151905061058681610560565b92915050565b600080600080608085870312156105a6576105a5610424565b5b600085015167ffffffffffffffff8111156105c4576105c3610429565b5b6105d087828801610532565b94505060206105e187828801610577565b935050604085015167ffffffffffffffff81111561060257610601610429565b5b61060e87828801610532565b925050606085015167ffffffffffffffff81111561062f5761062e610429565b5b61063b87828801610532565b91505092959194509250565b610713806106566000396000f3fe6080604052600436106100705760003560e01c8063899f7b9d1161004e578063899f7b9d146100d5578063b474693d14610100578063df0dd7541461012b578063f5afabc91461015657610070565b806378556957146100755780637f149c861461007f5780637f17b05d146100aa575b600080fd5b61007d610181565b005b34801561008b57600080fd5b50610094610290565b6040516100a19190610485565b60405180910390f35b3480156100b657600080fd5b506100bf610296565b6040516100cc91906104e1565b60405180910390f35b3480156100e157600080fd5b506100ea6102bc565b6040516100f7919061058c565b60405180910390f35b34801561010c57600080fd5b5061011561034a565b604051610122919061058c565b60405180910390f35b34801561013757600080fd5b506101406103d8565b60405161014d9190610485565b60405180910390f35b34801561016257600080fd5b5061016b6103de565b604051610178919061058c565b60405180910390f35b600554600154116101c7576040517f08c379a00000000000000000000000000000000000000000000000000000000081526004016101be906105fa565b60405180910390fd5b600460009054906101000a900473ffffffffffffffffffffffffffffffffffffffff1673ffffffffffffffffffffffffffffffffffffffff166108fc349081150290604051600060405180830381858888f1935050505015801561022f573d6000803e3d6000fd5b5034600560008282546102429190610649565b9250508190555042343373ffffffffffffffffffffffffffffffffffffffff167f4928895ba6723e8e27b15f32e4c3054a1b6c7f8c03f133558d6fa42b3928d14c60405160405180910390a4565b60055481565b600460009054906101000a900473ffffffffffffffffffffffffffffffffffffffff1681565b600280546102c9906106ac565b80601f01602080910402602001604051908101604052809291908181526020018280546102f5906106ac565b80156103425780601f1061031757610100808354040283529160200191610342565b820191906000526020600020905b81548152906001019060200180831161032557829003601f168201915b505050505081565b60038054610357906106ac565b80601f0160208091040260200160405190810160405280929190818152602001828054610383906106ac565b80156103d05780601f106103a5576101008083540402835291602001916103d0565b820191906000526020600020905b8154815290600101906020018083116103b357829003601f168201915b505050505081565b60015481565b600080546103eb906106ac565b80601f0160208091040260200160405190810160405280929190818152602001828054610417906106ac565b80156104645780601f1061043957610100808354040283529160200191610464565b820191906000526020600020905b81548152906001019060200180831161044757829003601f168201915b505050505081565b6000819050919050565b61047f8161046c565b82525050565b600060208201905061049a6000830184610476565b92915050565b600073ffffffffffffffffffffffffffffffffffffffff82169050919050565b60006104cb826104a0565b9050919050565b6104db816104c0565b82525050565b60006020820190506104f660008301846104d2565b92915050565b600081519050919050565b600082825260208201905092915050565b60005b8381101561053657808201518184015260208101905061051b565b60008484015250505050565b6000601f19601f8301169050919050565b600061055e826104fc565b6105688185610507565b9350610578818560208601610518565b61058181610542565b840191505092915050565b600060208201905081810360008301526105a68184610553565b905092915050565b7f526571756972656420416d6f756e742069732066756c6c66696c6c6564000000600082015250565b60006105e4601d83610507565b91506105ef826105ae565b602082019050919050565b60006020820190508181036000830152610613816105d7565b9050919050565b7f4e487b7100000000000000000000000000000000000000000000000000000000600052601160045260246000fd5b60006106548261046c565b915061065f8361046c565b92508282019050808211156106775761067661061a565b5b92915050565b7f4e487b7100000000000000000000000000000000000000000000000000000000600052602260045260246000fd5b600060028204905060018216806106c457607f821691505b6020821081036106d7576106d661067d565b5b5091905056fea2646970667358221220efd106a88217a7a6f4c4132a286362589f57c451d41a5ddc704fa99937d10a2464736f6c634300081b0033",
  "linkReferences": {},
  "deployedLinkReferences": {}
}